{
  "_format": "hh-sol-artifact-1",
  "contractName": "AccessRegistry",
  "sourceName": "contracts/KeyRegistry.sol",
  "abi": [
    {
      "inputs": [],
      "stateMutability": "nonpayable",
      "type": "constructor"
    },
    {
      "anonymous": false,
      "inputs": [
        {
          "indexed": true,
          "internalType": "address",
          "name": "provider",
          "type": "address"
        },
        {
          "indexed": true,
          "internalType": "address",
          "name": "patient",
          "type": "address"
        },
        {
          "indexed": true,
          "internalType": "bytes32",
          "name": "recordId",
          "type": "bytes32"
        },
        {
          "indexed": false,
          "internalType": "bytes32",
          "name": "token",
          "type": "bytes32"
        },
        {
          "indexed": false,
          "internalType": "uint64",
          "name": "expiresAt",
          "type": "uint64"
        }
      ],
      "name": "AccessRequested",
      "type": "event"
    },
    {
      "anonymous": false,
      "inputs": [
        {
          "indexed": true,
          "internalType": "address",
          "name": "patient",
          "type": "address"
        },
        {
          "indexed": true,
          "internalType": "bytes32",
          "name": "recordId",
          "type": "bytes32"
        },
        {
          "indexed": false,
          "internalType": "bool",
          "name": "active",
          "type": "bool"
        }
      ],
      "name": "ConsentToggled",
      "type": "event"
    },
    {
      "anonymous": false,
      "inputs": [
        {
          "indexed": true,
          "internalType": "address",
          "name": "user",
          "type": "address"
        },
        {
          "indexed": false,
          "internalType": "bytes32",
          "name": "idHash",
          "type": "bytes32"
        }
      ],
      "name": "IdentityRegistered",
      "type": "event"
    },
    {
      "anonymous": false,
      "inputs": [
        {
          "indexed": true,
          "internalType": "bytes32",
          "name": "recordId",
          "type": "bytes32"
        },
        {
          "indexed": true,
          "internalType": "address",
          "name": "owner",
          "type": "address"
        }
      ],
      "name": "RecordStored",
      "type": "event"
    },
    {
      "anonymous": false,
      "inputs": [
        {
          "indexed": true,
          "internalType": "bytes32",
          "name": "recordId",
          "type": "bytes32"
        },
        {
          "indexed": false,
          "internalType": "string",
          "name": "newCid",
          "type": "string"
        }
      ],
      "name": "RecordUpdated",
      "type": "event"
    },
    {
      "inputs": [],
      "name": "DOMAIN_SEPARATOR",
      "outputs": [
        {
          "internalType": "bytes32",
          "name": "",
          "type": "bytes32"
        }
      ],
      "stateMutability": "view",
      "type": "function"
    },
    {
      "inputs": [],
      "name": "EIP712_DOMAIN_TYPEHASH",
      "outputs": [
        {
          "internalType": "bytes32",
          "name": "",
          "type": "bytes32"
        }
      ],
      "stateMutability": "view",
      "type": "function"
    },
    {
      "inputs": [],
      "name": "REQUEST_TYPEHASH",
      "outputs": [
        {
          "internalType": "bytes32",
          "name": "",
          "type": "bytes32"
        }
      ],
      "stateMutability": "view",
      "type": "function"
    },
    {
      "inputs": [],
      "name": "ROLE_DOCTOR",
      "outputs": [
        {
          "internalType": "uint8",
          "name": "",
          "type": "uint8"
        }
      ],
      "stateMutability": "view",
      "type": "function"
    },
    {
      "inputs": [
        {
          "internalType": "bytes32",
          "name": "recordId",
          "type": "bytes32"
        }
      ],
      "name": "getRecord",
      "outputs": [
        {
          "internalType": "address",
          "name": "owner",
          "type": "address"
        },
        {
          "internalType": "bytes32",
          "name": "h",
          "type": "bytes32"
        },
        {
          "internalType": "string",
          "name": "encryptedCid",
          "type": "string"
        },
        {
          "internalType": "bool",
          "name": "consentActive",
          "type": "bool"
        },
        {
          "internalType": "uint256",
          "name": "timestamp",
          "type": "uint256"
        }
      ],
      "stateMutability": "view",
      "type": "function"
    },
    {
      "inputs": [
        {
          "internalType": "address",
          "name": "patient",
          "type": "address"
        }
      ],
      "name": "getRecordIdByOwner",
      "outputs": [
        {
          "internalType": "bytes32",
          "name": "",
          "type": "bytes32"
        }
      ],
      "stateMutability": "view",
      "type": "function"
    },
    {
      "inputs": [
        {
          "internalType": "address",
          "name": "",
          "type": "address"
        }
      ],
      "name": "identities",
      "outputs": [
        {
          "internalType": "bytes32",
          "name": "idHash",
          "type": "bytes32"
        },
        {
          "internalType": "bytes",
          "name": "pubKey",
          "type": "bytes"
        },
        {
          "internalType": "bool",
          "name": "exists",
          "type": "bool"
        }
      ],
      "stateMutability": "view",
      "type": "function"
    },
    {
      "inputs": [
        {
          "internalType": "address",
          "name": "",
          "type": "address"
        },
        {
          "internalType": "uint256",
          "name": "",
          "type": "uint256"
        }
      ],
      "name": "patientRecords",
      "outputs": [
        {
          "internalType": "bytes32",
          "name": "",
          "type": "bytes32"
        }
      ],
      "stateMutability": "view",
      "type": "function"
    },
    {
      "inputs": [
        {
          "internalType": "address",
          "name": "",
          "type": "address"
        }
      ],
      "name": "rate",
      "outputs": [
        {
          "internalType": "uint32",
          "name": "count",
          "type": "uint32"
        },
        {
          "internalType": "uint64",
          "name": "windowStart",
          "type": "uint64"
        }
      ],
      "stateMutability": "view",
      "type": "function"
    },
    {
      "inputs": [
        {
          "internalType": "bytes32",
          "name": "",
          "type": "bytes32"
        },
        {
          "internalType": "uint256",
          "name": "",
          "type": "uint256"
        }
      ],
      "name": "recordHistory",
      "outputs": [
        {
          "internalType": "string",
          "name": "",
          "type": "string"
        }
      ],
      "stateMutability": "view",
      "type": "function"
    },
    {
      "inputs": [
        {
          "internalType": "bytes32",
          "name": "",
          "type": "bytes32"
        }
      ],
      "name": "records",
      "outputs": [
        {
          "internalType": "address",
          "name": "owner",
          "type": "address"
        },
        {
          "internalType": "bytes32",
          "name": "h",
          "type": "bytes32"
        },
        {
          "internalType": "string",
          "name": "encryptedCid",
          "type": "string"
        },
        {
          "internalType": "bool",
          "name": "consentActive",
          "type": "bool"
        },
        {
          "internalType": "uint256",
          "name": "timestamp",
          "type": "uint256"
        }
      ],
      "stateMutability": "view",
      "type": "function"
    },
    {
      "inputs": [
        {
          "internalType": "bytes",
          "name": "pubKey",
          "type": "bytes"
        }
      ],
      "name": "registerIdentity",
      "outputs": [],
      "stateMutability": "nonpayable",
      "type": "function"
    },
    {
      "inputs": [
        {
          "internalType": "address",
          "name": "patient",
          "type": "address"
        },
        {
          "internalType": "bytes32",
          "name": "recordId",
          "type": "bytes32"
        },
        {
          "internalType": "uint8",
          "name": "role",
          "type": "uint8"
        },
        {
          "internalType": "uint64",
          "name": "timestamp",
          "type": "uint64"
        },
        {
          "internalType": "uint256",
          "name": "nonce",
          "type": "uint256"
        },
        {
          "internalType": "uint8",
          "name": "v",
          "type": "uint8"
        },
        {
          "internalType": "bytes32",
          "name": "r",
          "type": "bytes32"
        },
        {
          "internalType": "bytes32",
          "name": "s",
          "type": "bytes32"
        },
        {
          "internalType": "uint64",
          "name": "ttlSeconds",
          "type": "uint64"
        }
      ],
      "name": "requestAccess",
      "outputs": [
        {
          "internalType": "bytes32",
          "name": "token",
          "type": "bytes32"
        },
        {
          "internalType": "uint64",
          "name": "expiresAt",
          "type": "uint64"
        }
      ],
      "stateMutability": "nonpayable",
      "type": "function"
    },
    {
      "inputs": [
        {
          "internalType": "bytes32",
          "name": "recordId",
          "type": "bytes32"
        },
        {
          "internalType": "bytes32",
          "name": "h",
          "type": "bytes32"
        },
        {
          "internalType": "string",
          "name": "encryptedCid",
          "type": "string"
        },
        {
          "internalType": "bool",
          "name": "consentActive",
          "type": "bool"
        }
      ],
      "name": "storeRecord",
      "outputs": [],
      "stateMutability": "nonpayable",
      "type": "function"
    },
    {
      "inputs": [
        {
          "internalType": "bytes32",
          "name": "recordId",
          "type": "bytes32"
        },
        {
          "internalType": "bool",
          "name": "active",
          "type": "bool"
        }
      ],
      "name": "toggleConsent",
      "outputs": [],
      "stateMutability": "nonpayable",
      "type": "function"
    },
    {
      "inputs": [
        {
          "internalType": "bytes32",
          "name": "",
          "type": "bytes32"
        }
      ],
      "name": "tokenExpiry",
      "outputs": [
        {
          "internalType": "uint64",
          "name": "",
          "type": "uint64"
        }
      ],
      "stateMutability": "view",
      "type": "function"
    },
    {
      "inputs": [
        {
          "internalType": "bytes32",
          "name": "token",
          "type": "bytes32"
        }
      ],
      "name": "tokenValid",
      "outputs": [
        {
          "internalType": "bool",
          "name": "",
          "type": "bool"
        }
      ],
      "stateMutability": "view",
      "type": "function"
    },
    {
      "inputs": [
        {
          "internalType": "bytes32",
          "name": "recordId",
          "type": "bytes32"
        },
        {
          "internalType": "bytes32",
          "name": "newH",
          "type": "bytes32"
        },
        {
          "internalType": "string",
          "name": "newCid",
          "type": "string"
        }
      ],
      "name": "updateRecord",
      "outputs": [],
      "stateMutability": "nonpayable",
      "type": "function"
    },
    {
      "inputs": [
        {
          "internalType": "bytes32",
          "name": "",
          "type": "bytes32"
        }
      ],
      "name": "usedRequest",
      "outputs": [
        {
          "internalType": "bool",
          "name": "",
          "type": "bool"
        }
      ],
      "stateMutability": "view",
      "type": "function"
    }
  ],
  "bytecode": "0x608080604052346100d657602081610018600e936100db565b828152016d416363657373526567697374727960901b81522060016020604051610041816100db565b82815201603160f81b815220906040519160208301917f8b73c3c69bb8fe3d512ecc4cf759cc79239f7b179b0ffacaa9a75d522b39400f8352604084015260608301524660808301523060a083015260a0825260c082019180831060018060401b038411176100c0578260405251902060005561167590816100f78239f35b634e487b7160e01b600052604160045260246000fd5b600080fd5b604081019081106001600160401b038211176100c05760405256fe6080604052600436101561001257600080fd5b60003560e01c806301e64725146112415780630ba9d8ca146111f157806312051f941461116757806318c6ae4314610ec2578063213681cd14610e365780633644e51514610e1857806338d3a40214610de05780635fdb789f14610d85578063673bec8a14610b755780637185002514610b4457806378c437a614610b0f57806394f0df6114610ab65780639e39b73e14610a7b578063a2b3bef71461051c578063b3b8269614610320578063c7977be7146102e5578063d12c892a1461020e578063f653b81e1461010e5763ffcb7972146100ed57600080fd5b3461010957600036600319011261010957602060405160008152f35b600080fd5b3461010957602080600319360112610109576001600160a01b03610130611431565b1660005260018082528160406000208054928082019060405193849260009281549161015b8361129c565b808752928281169081156101ed57506001146101b1575b505050506101a59261018a60ff9360029303866112f1565b015416916060604051958695865285015260608401906113b8565b90151560408301520390f35b6000908152838120939450925b8284106101d7575050508201018561018a836002610172565b80548885018601528795509284019281016101be565b60ff191685880152505050151560051b83010190508561018a836002610172565b3461010957602080600319360112610109576001600160a01b03610230611431565b16600052600381526040600020604051808284829454938481520190600052846000209260005b868282106102cf578461026c818603826112f1565b8051908161028157505060005b604051908152f35b60001982019182116102b95780518210156102a357829160051b010151610279565b634e487b7160e01b600052603260045260246000fd5b634e487b7160e01b600052601160045260246000fd5b8554845260019586019587955093019201610257565b346101095760003660031901126101095760206040517f8b73c3c69bb8fe3d512ecc4cf759cc79239f7b179b0ffacaa9a75d522b39400f8152f35b34610109576060366003190112610109576001600160401b0360043560443582811161010957610354903690600401611447565b908260005260209060028252604060002061037960018060a01b038254163314611526565b846000526004835260406000209560028201908754600160401b8110156104f0576103ab906001998a82018155611474565b61050657826103b991611561565b6024358884015585116104f0576103da856103d4835461129c565b836114d2565b600096601f86116001146104665792859283928380604098977fc2792f3dddd5fd6ca0ba6d9d105caa850f2d33bb2ed740b980018fe25fb7fcbc9b9c60009361045b575b501b906000198660031b1c19161790555b6004429101558451958487958652850152848401376000828201840152601f01601f19168101030190a2005b86013592508d61041e565b601f19861682600052856000209060005b8181106104db57509260409695928895927fc2792f3dddd5fd6ca0ba6d9d105caa850f2d33bb2ed740b980018fe25fb7fcbc9a9b878097106104c1575b505084811b01905561042f565b850135600019600388901b60f8161c191690558b806104b4565b868b0135835599870199918301918701610477565b634e487b7160e01b600052604160045260246000fd5b634e487b7160e01b600052600060045260246000fd5b346101095761012036600319011261010957610536611431565b60443560ff8116810361010957606435906001600160401b0382168092036101095760a4359060ff821682036101095761010435926001600160401b038416840361010957336000526007602052604060002080546001600160401b038160201c1642034281116102b957610e1010610a51575b50805463ffffffff808216600a811015610a1d578181146102b957600101169063ffffffff19161790556040519060208201907f2a8d8daaeb3bcbf150afd2707e6042f17a432e989e930784e3ece1567a40c6ea825233604084015260018060a01b0387166060840152602435608084015260ff841660a084015260c083015260843560e083015260e08252816101008101106001600160401b03610100840111176104f05761010082016040819052825190912060005461190160f01b61012085015261012284015261014283018190526042825293906001600160401b0361018084019081119111176104f05760806101808360ff600094836020970160405261010083015161012084012084840152166101a082015260c4356101c082015260e4356101e08201528380520160015afa15610a1157600051336001600160a01b03909116036109dc5781600052600560205260ff604060002054166109ae5760ff166109735760005260056020526040600020600160ff1982541617905560018060a01b038216600052600160205260ff60026040600020015416156109355760243560005260026020526040600020604051610769816112d6565b81546001600160a01b031681526001820154602082015261078c60028301611312565b6040820152600382015460ff161515606082019081526004909201546080820152516001600160a01b038481169116036108f85751156108c057604051916020830160018060a01b0382168152336040850152602435606085015242608085015260843560a085015260a0845260c08401908482106001600160401b038311176104f0576001600160401b03908260405285519020931642018042116102b957600084815260066020908152604091829020805467ffffffffffffffff19166001600160401b0394909416938417905585845283018290529094602435936001600160a01b03169233927ff1a8e4d3034c93cf9f2b7badde0e23d97b8b2cc8ac5d475af65d4aca82b5bde09260bf19918301030190a4604080519182526001600160401b03929092166020820152f35b0390f35b60405162461bcd60e51b815260206004820152601060248201526f436f6e73656e7420696e61637469766560801b6044820152606490fd5b60405162461bcd60e51b81526020600482015260156024820152740a4cac6dee4c840deeedccae440dad2e6dac2e8c6d605b1b6044820152606490fd5b60405162461bcd60e51b815260206004820152601660248201527514185d1a595b9d081b9bdd081c9959da5cdd195c995960521b6044820152606490fd5b60405162461bcd60e51b815260206004820152601360248201527213db9b1e48191bd8dd1bdc88185b1b1bddd959606a1b6044820152606490fd5b60405162461bcd60e51b81526020600482015260066024820152655265706c617960d01b6044820152606490fd5b60405162461bcd60e51b815260206004820152600d60248201526c426164207369676e617475726560981b6044820152606490fd5b6040513d6000823e3d90fd5b60405162461bcd60e51b815260206004820152600c60248201526b14985d19481b1a5b5a5d195960a21b6044820152606490fd5b6bffffffffffffffffffffffff19164260201b6bffffffffffffffff0000000016178155866105aa565b346101095760003660031901126101095760206040517f2a8d8daaeb3bcbf150afd2707e6042f17a432e989e930784e3ece1567a40c6ea8152f35b3461010957604036600319011261010957610acf611431565b6001600160a01b031660009081526003602052604090208054602435919082101561010957602091610b0091611474565b90549060031b1c604051908152f35b3461010957602036600319011261010957600435600052600660205260206001600160401b0360406000205416604051908152f35b34610109576020366003190112610109576004356000526005602052602060ff604060002054166040519015158152f35b3461010957602080600319360112610109576001600160401b039060043582811161010957610ba8903690600401611447565b919033600052600180835260ff60026040600020015416610d4b57610bce36858461148c565b83815191012093604051926060840191848310888411176104f057610bfa92604052868552369161148c565b838301908152604083019180835233600052808552604060002093518455808401915180519788116104f057610c3a88610c34855461129c565b856114d2565b8590601f8911600114610cbd57978080610ca7979694600296947f209ae2eb4ff1890ce972a80ec3e167b52d41ab089135cc6430447b1430e824be9b9c600094610cb2575b50501b916000199060031b1c19161790555b51151591019060ff801983541691151516179055565b6040519283523392a2005b015192508c80610c7f565b9790601f1982169884600052876000209960005b818110610d36575099610ca7979694928492600297957f209ae2eb4ff1890ce972a80ec3e167b52d41ab089135cc6430447b1430e824be9c9d10610d1d575b505050811b019055610c91565b015160001960f88460031b161c191690558a8080610d10565b838301518c559a85019a928901928901610cd1565b60405162461bcd60e51b8152600481018490526012602482015271105b1c9958591e481c9959da5cdd195c995960721b6044820152606490fd5b34610109576040366003190112610109576024356004356000526004602052604060002090815481101561010957610dbc91611474565b61050657610dcc6108bc91611312565b6040519182916020835260208301906113b8565b3461010957602036600319011261010957600435600052600660205260206001600160401b0360406000205416604051904211158152f35b34610109576000366003190112610109576020600054604051908152f35b34610109576020366003190112610109576004356000526002602052604060002060405190610e64826112d6565b6108bc60018060a01b039283835416815260018301549260208201938452610e8e60028201611312565b94856040840152600460ff6003840154161515928360608601520154928360808201525116935194604051958695866113f8565b34610109576080366003190112610109576004356001600160401b0360443581811161010957610ef6903690600401611447565b919060643592831515809403610109573360005260019360209385855260ff600260406000200154161561112f5786600052600285526004604060002001546110f257610f5c60405194610f49866112d6565b338652868601946024358652369161148c565b604085810191825260608601938452426080870190815260008a81526002808a52929020965187546001600160a01b0319166001600160a01b0391909116178755945188870155905180519186019282116104f057610fbf82610c34855461129c565b8690601f831160011461108057928261100d936004969360039a999896600092611075575b5050600019828b1b1c1916908a1b1790555b5115158685019060ff801983541691151516179055565b5191015533600052526040600020805490600160401b8210156104f0576110379282018155611474565b81549060031b9083821b91600019901b191617905533907f9ab34480d94fab9083fb6dc4436216baa0bd47784e8c6f8813840893e97b2ac2600080a3005b015190508c80610fe4565b889291601f1983169185600052896000209260005b8181106110db57509261100d959285926004999660039d9c9b9996106110c3575b505050811b019055610ff6565b0151600019838d1b60f8161c191690558c80806110b6565b8284015185558c9690940193928b01928b01611095565b60405162461bcd60e51b81526004810186905260156024820152745265636f726420616c72656164792065786973747360581b6044820152606490fd5b60405162461bcd60e51b815260048101869052601060248201526f4964656e74697479206d697373696e6760801b6044820152606490fd5b346101095760403660031901126101095760043560243580151590818103610109576111c390836000526002602052600360406000206111b160018060a01b038254163314611526565b019060ff801983541691151516179055565b6040519081527f834c3e1ddee4aa8db57b8b66fd5e2b3f9e8913c4f23f284c0b12ebee08af736260203392a3005b34610109576020366003190112610109576001600160a01b03611212611431565b166000526007602052604080600020546001600160401b0382519163ffffffff8116835260201c166020820152f35b34610109576020366003190112610109576004356000526002602052604060002060018060a01b038154166108bc60018301549261128160028201611312565b90600460ff60038301541691015491604051958695866113f8565b90600182811c921680156112cc575b60208310146112b657565b634e487b7160e01b600052602260045260246000fd5b91607f16916112ab565b60a081019081106001600160401b038211176104f057604052565b90601f801991011681019081106001600160401b038211176104f057604052565b90604051918260008254926113268461129c565b9081845260019485811690816000146113955750600114611352575b5050611350925003836112f1565b565b9093915060005260209081600020936000915b81831061137d57505061135093508201013880611342565b85548884018501529485019487945091830191611365565b91505061135094506020925060ff191682840152151560051b8201013880611342565b919082519283825260005b8481106113e4575050826000602080949584010152601f8019910116010190565b6020818301810151848301820152016113c3565b9192608093611425929796959760018060a01b03168452602084015260a0604084015260a08301906113b8565b94151560608201520152565b600435906001600160a01b038216820361010957565b9181601f84011215610109578235916001600160401b038311610109576020838186019501011161010957565b80548210156102a35760005260206000200190600090565b9291926001600160401b0382116104f057604051916114b5601f8201601f1916602001846112f1565b829481845281830111610109578281602093846000960137010152565b90601f81116114e057505050565b600091825260208220906020601f850160051c8301941061151c575b601f0160051c01915b82811061151157505050565b818155600101611505565b90925082906114fc565b1561152d57565b60405162461bcd60e51b815260206004820152600c60248201526b155b985d5d1a1bdc9a5e995960a21b6044820152606490fd5b9080821461163b57611573815461129c565b906001600160401b0382116104f057819061159882611592865461129c565b866114d2565b600090601f83116001146115cf576000926115c4575b50508160011b916000199060031b1c1916179055565b0154905038806115ae565b81526020808220858352818320935090601f1985169083905b828210611622575050908460019594939210611609575b505050811b019055565b015460001960f88460031b161c191690553880806115ff565b84958192958501548155600180910196019401906115e8565b505056fea2646970667358221220649836a4e34e301a622cbbd7d58fce25b605a9a184e794c9106c2607180680f564736f6c63430008140033",
  "linkReferences": {},
  "deployedLinkReferences": {}
}